:1000000040C01BC147C119C561C060C05FC05EC0B0
:100010005DC082C15BC068C259C058C057C056C0DD
:1000200055C054C053C000000000370034003100F8
:1000300000000000380035003200000000003600EB
:100040003300300004040404040404040202020225
:10005000020203030303030301020408102040808B
:100060000102040810200102040810200000000012
:100070000000000000030405000000000000000074
:10008000AF0311241FBECFE5D4E0DEBFCDBF10E02B
:10009000A0E6B0E0E6EFFBE002C005900D92A037CD
:1000A000B107D9F711E0A0E7B0E001C01D92AD3172
:1000B000B107E1F710E0C2E8D0E003C02297FE01EB
:1000C00094D5C038D107D1F784D393C599CF80E0B8
:1000D0000ED1909371008093700020916200309156
:1000E0006300821B930B079784F18DE060E0C5D11C
:1000F00013C083E091E04AE050E078D483E091E0DF
:1001000087D464E170E080E090E04ED180E0EFD0F1
:1001100090937100809370006091700070917100F5
:1001200080916200909163009B01281B390B27305E
:100130003105FCF683E091E060E670E085D383E072
:1001400091E066D48DE061E098D16AE070E080E0F3
:1001500090E02AD1089583E091E040E855E260E024
:1001600070E0FDD18DE061E068D18DE061E085D186
:1001700068EE73E080E090E017D18DE060E07DD123
:1001800080E0B5D09C0190937100809370008091C5
:10019000620090916300A901481B590BCA018E5F50
:1001A0009F4F0CF049C08FEF93E0821B930B089791
:1001B0002CF0309363002093620006C087EF93E039
:1001C00090936300809362008DE060E056D16CE212
:1001D00071E080E090E0E8D08DE061E04ED16CE22B
:1001E00071E080E090E0E0D08DE060E046D16CE22C
:1001F00071E080E090E0D8D08DE061E03ED16CE22B
:1002000071E080E090E0D0D08DE060E036D16CE22B
:1002100071E080E090E0C8D08DE061E02ED16CE22A
:1002200071E080E090E0C0D08DE060E026D16CE22B
:1002300071E080E090E0B8D008951F920F920FB661
:100240000F9211242F933F934F935F936F937F935C
:100250008F939F93AF93BF93EF93FF93809172001F
:1002600090917300892B29F0E0917200F091730056
:100270000995FF91EF91BF91AF919F918F917F91E0
:100280006F915F914F913F912F910F900FBE0F9003
:100290001F9018951F920F920FB60F9211242F9353
:1002A0003F934F935F936F937F938F939F93AF93FE
:1002B000BF93EF93FF938091740090917500892B09
:1002C00029F0E0917400F09175000995FF91EF918C
:1002D000BF91AF919F918F917F916F915F914F915E
:1002E0003F912F910F900FBE0F901F901895877020
:1002F000909164009295990F990F907C982B97B9E3
:10030000369A3699FECF24B145B1942F80E030E083
:10031000282B392BC90108951F920F920FB60F9207
:1003200011242F933F938F939F93AF93BF9380910B
:100330007A0090917B00A0917C00B0917D0030917B
:100340007E000196A11DB11D232F2D5F2D3720F0BA
:100350002D570196A11DB11D20937E0080937A0038
:1003600090937B00A0937C00B0937D0080917600F9
:1003700090917700A0917800B09179000196A11D2D
:10038000B11D8093760090937700A0937800B0938E
:100390007900BF91AF919F918F913F912F910F90D5
:1003A0000FBE0F901F901895EF92FF920F931F931F
:1003B0007B018C018FB7F89440917A0050917B00BB
:1003C00060917C0070917D008FBF2FB7F894809171
:1003D0007A0090917B00A0917C00B0917D002FBFAE
:1003E000841B950BA60BB70BE816F9060A071B072B
:1003F00060F71F910F91FF90EF900895789483B765
:10040000826083BF83B7816083BF89B7816089BF02
:100410008EB582608EBD8EB581608EBD8FB58160D8
:100420008FBD85B5846085BD85B5806485BD329AF4
:10043000319A309A379A1AB80895282F30E0C901B6
:10044000885A9F4FFC0194912C5B3F4FF901849196
:10045000882391F0E82FF0E0EE0FFF1FEA5DFF4FD9
:10046000A591B491662329F48C91909589238C935E
:1004700008958C91892B8C930895482F50E0CA01E0
:1004800084599F4FFC012491CA01885A9F4FFC0157
:1004900094914C5B5F4FFA013491332321F1222375
:1004A00081F0233019F48FB58F7704C0243021F404
:1004B0008FB58F7D8FBD05C0253019F485B58F7D33
:1004C00085BDE32FF0E0EE0FFF1FE05DFF4FA5912C
:1004D000B491662329F48C91909589238C93089587
:1004E0008C91892B8C9308951F920F920FB60F92C7
:1004F00011242F933F934F935F936F937F938F9329
:100500009F93AF93BF93EF93FF934CB1E091FF00A4
:10051000F0910001CF01019660E870E000D39C01EA
:1005200080910101909102012817390739F0E158B3
:10053000FF4F4083309300012093FF00FF91EF9124
:10054000BF91AF919F918F917F916F915F914F91EB
:100550003F912F910F900FBE0F901F9018955F92B3
:100560006F927F928F929F92AF92BF92CF92DF92C3
:10057000EF92FF920F931F93CF93DF93EC013A0119
:100580004B01413482E458078FE0680780E0780728
:100590000CF075C060E874E88EE190E0A40193016E
:1005A000F3D22150304040405040CA01B90122E00E
:1005B00030E040E050E0E8D259016A01A60195011F
:1005C000209530954095509594E0220F331F441F9D
:1005D000551F9A95D1F760E074E284EF90E0D4D291
:1005E000CA01B9012FEF30E040E050E079D2A40118
:1005F0009301CAD2C90181509F4F181619061CF4E5
:10060000522E5A9403C055245394521A60E079E054
:100610008DE390E0A4019301B7D2215030404040D7
:100620005040CA01B90122E030E040E050E0ACD2D5
:10063000209530954095509583E0220F331F441F3D
:10064000551F8A95D1F760E074E284EF90E09CD268
:10065000CA01B9012FEF30E040E050E041D2A401DF
:10066000930192D2C90181509F4F181619061CF4AC
:10067000822F815002C081E0821B8515F0F4E8854D
:10068000F98581E090E00A8802C0880F991F0A94DA
:10069000E2F7808360E079E08DE390E0A4019301CC
:1006A00073D22150304040405040CA01B90122E08D
:1006B00030E040E050E068D204C0E885F98510825F
:1006C0009501EC81FD813083EE81FF812083EA85F5
:1006D000FB85208141E050E0CA010E8402C0880FF2
:1006E000991F0A94E2F7282B2083EA85FB85208155
:1006F000CA010F8402C0880F991F0A94E2F7282BC1
:100700002083EA85FB858081088802C0440F551F3D
:100710000A94E2F7842B8083DF91CF911F910F9190
:10072000FF90EF90DF90CF90BF90AF909F908F9011
:100730007F906F905F900895FC01A085B18521891D
:100740008C9190E0022E02C0959587950A94E2F76D
:1007500080FFF6CF0484F585E02D6083089589E657
:1007600090E090930401809303018FE790E09093D1
:1007700006018093050180E490E090930801809346
:10078000070189E290E090930A01809309018BE2CE
:1007900090E090930C0180930B018AE290E090939B
:1007A0000E0180930D018CE290E0909310018093F4
:1007B0000F0184E08093110183E08093120187E0B0
:1007C0008093130185E08093140181E080931501EB
:1007D000089514DEC0DC7BDCFECF0F931F93CF9314
:1007E000DF938C01EB0109C02196D801ED91FC91BA
:1007F0000190F081E02DC801099568816623A1F779
:10080000DF91CF911F910F910895EF92FF920F9377
:100810001F93CF93DF938C017B01EA010CC0D701BA
:100820006D917D01D801ED91FC910190F081E02D59
:10083000C80109952197209791F7DF91CF911F91DA
:100840000F91FF90EF900895DC01ED91FC910280F3
:10085000F381E02D099508952F923F924F925F9278
:100860006F927F928F929F92AF92BF92CF92DF92C0
:10087000EF92FF920F931F93DF93CF93CDB7DEB725
:10088000A0970FB6F894DEBF0FBECDBF1C016A0162
:100890007B01411551056105710541F440E350E0CC
:1008A00060E070E020E030E06DD053C088249924EF
:1008B0005401422E55246624772401E010E00C0FE9
:1008C0001D1F080D191DC701B601A30192013AD1E0
:1008D000F80160830894811C911CA11CB11CC70104
:1008E000B601A30192012ED1C901DA016C017D018B
:1008F000C114D104E104F10401F781E0E82EF12CE8
:10090000EC0EFD1EE80CF91C3E010894611C711CE4
:10091000D501C4010197A109B1096C01C818D90812
:1009200015C0F601EE0DFF1D40814A3010F4405D08
:1009300001C0495C552747FD5095652F752FC101B2
:1009400020E030E01FD00894E108F1086E147F0425
:1009500041F7A0960FB6F894DEBF0FBECDBFCF9182
:10096000DF911F910F91FF90EF90DF90CF90BF909C
:10097000AF909F908F907F906F905F904F903F903F
:100980002F900895EF92FF920F931F93CF93DF93D1
:10099000EC017A018B012115310541F4E881F981DF
:1009A0000190F081E02D642F099519C02A3031059E
:1009B000A9F477FF0FC04DE250E060E070E020E066
:1009C00030E0E0DF10950095F094E094E11CF11C1C
:1009D000011D111DCE01B801A7012AE03DDFDF9105
:1009E000CF911F910F91FF90EF900895EF92FF929A
:1009F0000F931F937B019A010027F7FC0095102F9E
:100A0000B801A701BFDF1F910F91FF90EF900895EC
:100A10000F931F938C014DE050E060E070E020E008
:100A200030E0B0DFC8014AE050E060E070E020E074
:100A300030E0A8DF1F910F9108951F920F920FB61B
:100A40000F9211248F939F93AF93BF93EF93FF93D4
:100A50008091160190911701A0911801B091190190
:100A6000E0911A01F0911B010097A105B10531F148
:100A7000808190911C01892780838091160190913B
:100A80001701A0911801B0911901181619061A063C
:100A90001B06DCF48091160190911701A0911801BA
:100AA000B09119010197A109B109809316019093A2
:100AB0001701A0931801B093190107C019BE9081C6
:100AC00080911C01809589238083FF91EF91BF91D4
:100AD000AF919F918F910F900FBE0F901F9018951F
:100AE000629FD001739FF001829FE00DF11D649F12
:100AF000E00DF11D929FF00D839FF00D749FF00D9E
:100B0000659FF00D9927729FB00DE11DF91F639F3E
:100B1000B00DE11DF91FBD01CF011124089597FB10
:100B2000092E07260AD077FD04D049D006D0002030
:100B30001AF4709561957F4F0895F6F79095819519
:100B40009F4F0895A1E21A2EAA1BBB1BFD010DC0E9
:100B5000AA1FBB1FEE1FFF1FA217B307E407F5076D
:100B600020F0A21BB30BE40BF50B661F771F881F49
:100B7000991F1A9469F760957095809590959B01DF
:100B8000AC01BD01CF01089597FB092E05260ED0BB
:100B900057FD04D0D7DF0AD0001C38F4509540959B
:100BA000309521953F4F4F4F5F4F0895F6F7909541
:100BB0008095709561957F4F8F4F9F4F0895AA1B29
:100BC000BB1B51E107C0AA1FBB1FA617B70710F038
:100BD000A61BB70B881F991F5A95A9F7809590956A
:100BE000BC01CD010895EE0FFF1F0590F491E02D9B
:060BF0000994F894FFCF08
:100BF6007800FF0301000000009C03ED03050400DC
:00000001FF
